:020000040000FA
:0300000002009B60
:10004B000200C700000080FB1200A4B900030200ED
:10005B0095E4900001780579018002F0A3D8FCD9D2
:10006B00FA900005AA82AB839000A77804790180EF
:10007B0015E493A3AC82AD838A828B83F0A3AA820F
:10008B00AB838C828D83D8E9D9E712017812004EAD
:10009B0075D0007581BF020053790122FFFF014328
:1000AB00FE13C290C291C2942285E4E475DA807586
:1000BB00DB3ED2DED2B9D2AF43E40322C0E0C0D0E4
:1000CB00E8C0E0C082C08353AFDFA281E433F89075
:1000DB000005E0C33348900005F0A287E433F890A5
:1000EB000006E0C33348900006F0900005E070086E
:1000FB009000077400F0800E900005E064FF70061E
:10010B009000077401F0900006E0700890000174F5
:10011B0000F0800E900006E064FF70069000017402
:10012B0001F0900003E02401F0A3E03400F0900014
:10013B0003E064EE7004A3E06402700890000274A4
:10014B0001F0801D900003C3E094E8A3E09403400A
:10015B00109000027400F09000037400F0A3740080
:10016B00F0D083D082D0E0F8D0D0D0E0327E017FC7
:10017B00011200AA1200B48023900002E0A2E092C8
:10018B0094C290900001C082C083900007E0D0839E
:10019B00D082F8E05870E2900001E0FF900007E099
:1001AB006E6028EE7020800A900002E0A2E0929030
:1001BB00C294900001C082C083900007E0D083D02E
:1001CB0082F8E05870E2900007E0FE900001E06FCB
:0701DB0060CAEF70C280ACA6
:040000050000009B5C
:00000001FF
