:020000040000FA
:030000000200906B
:030033000201BE09
:10006B0002018D00000080FB120099B90003020011
:10007B008AE479107804B800028004F709D8FC12DE
:10008B0001E712006E75D0007581BF020073790114
:10009B0022C8C0E0E9C0E0A9811919E583C7F5833F
:1000AB0019E582C7F582EAC0E0EBC0E0ECC0E0EDF9
:1000BB00C0E0EEC0E0EFC0E0C0D0C0F0C0207908D7
:1000CB00E709C0E0D8FAE47374072FF8D0E0F6180C
:1000DB00DFFAD020D0F0D0D0D0E0FFD0E0FED0E0DF
:1000EB00FDD0E0FCD0E0FBD0E0FAD0E0F9D0E0F8B6
:1000FB00D083D082D0E0327C007D008019E82401CF
:10010B00F8E93400F9C3E89417E9940240EFEC24C2
:10011B0001FCED3400FDC3EC9AED9B5006780079A1
:10012B000080E20000007810E670FB7812E62401F4
:10013B00F608740036F61822E9A2E09290E9A2E0E4
:10014B009291E9A2E092942243FE0143FE0243FE08
:10015B0010790002014353F37F53FD7F538F7F438D
:10016B00AB80438C01D2BD75890053F5FE53FFFE66
:10017B0053F7FE43AC01438C01439A02758B00D2BB
:10018B00AF22C0E0740112009CE589A2E7501A7AF5
:10019B000A7B00120102A287400F7811E6700478E7
:1001AB0001800278007911E8F753897FC2C57F017E
:1001BB000200D3C0E0C0D0E8C0E0E58BA2E0501253
:1001CB007810E6700678107601800478107600536C
:1001DB008BFEC2E8D0E0F8D0D0D0E032120153123F
:1001EB0001618033D2F0A29430F001B392947AC8BB
:1001FB007B00120102D2F0A29130F001B392917AFE
:10020B00C87B00120102D2F0A29030F001B39290A1
:10021B007AC87B001201027811E6640160C679008E
:10022B00120143D2907AF47B01120102C2907AF44C
:07023B007B0112010280E0CB
:040000050000009067
:00000001FF
